:1000000028288F018E00FF308E07031C8F07031CEA
:10001000232803308D00DF300F2003288D01E83EB8
:100020008C008D09FC30031C18288C070318152838
:100030008C0764008D0F15280C181E288C1C222894
:1000400000002228080083130313831264000800B1
:100050008316FC3086008312061483160610831262
:10006000861083168610831213308F00883002208A
:1000700006108316061083128614831686108312C8
:0E00800013308F00883002202C2863004528A2
:02400E00FD3F74
:00000001FF
