:1000000028288F018E00FF308E07031C8F07031CEA
:10001000232803308D00DF300F2003288D01E83EB8
:100020008C008D09FC30031C18288C070318152838
:100030008C0764008D0F15280C181E288C1C222894
:1000400000002228080083130313831264000800B1
:100050008316860183123F30860003308F00E8301C
:1000600002200630860003308F00E83002205B302B
:10007000860003308F00E83002204F3086000330C6
:100080008F00E83002206630860003308F00E830B1
:1000900002206D30860003308F00E83002207D3072
:1000A000860003308F00E8300220073086000330DE
:1000B0008F00E83002207F30860003308F00E83068
:1000C00002206730860003308F00E83002202B28A2
:0400D0006300682839
:02400E00FD3F74
:00000001FF
