:100000003F288F00220884002009282084138F08AD
:1000100003193A28F03091000E0880389000F03033
:1000200091030319910003198F0303193A28182823
:100030002B2003010C1820088E1F20088E0803199E
:100040000301900F252880060C28262800000F2881
:10005000841780053A280D080C0403198C0A803097
:100060000C1A8D060C198D068C188D060D0D8C0D35
:100070008D0D3A288313031383126400080083163E
:10008000860183120630A2000130A0006E308E007F
:10009000E83001205A308E00E83001204228630009
:0200A0004F28E7
:02400E00FD3F74
:00000001FF
