:1000000028288F018E00FF308E07031C8F07031CEA
:10001000232803308D00DF300F2003288D01E83EB8
:100020008C008D09FC30031C18288C070318152838
:100030008C0764008D0F15280C181E288C1C222894
:1000400000002228080083130313831264000800B1
:100050008316F8308600F8308600F8308600831268
:100060000130860013308F00883002208601643012
:1000700001200130860064300120860164300120B7
:100080000130860064300120860164300120013097
:100090008600643001200230860001308F002C3051
:1000A00002200430860013308F0088300220302870
:0400B0006300582869
:02400E00FD3F74
:00000001FF
