:1000000028288F018E00FF308E07031C8F07031CEA
:10001000232803308D00DF300F2003288D01E83EB8
:100020008C008D09FC30031C18288C070318152838
:100030008C0764008D0F15280C181E288C1C222894
:1000400000002228080083130313831264000800B1
:100050008316860183120130A40064000530240257
:1000600003184028013086004120023086004120DC
:10007000043086004120083086004120A40F2D283E
:0C0080002B28C830012008006300442831
:02400E00FD3F74
:00000001FF
