:1000000028288F018E00FF308E07031C8F07031CEA
:10001000232803308D00DF300F2003288D01E83EB8
:100020008C008D09FC30031C18288C070318152838
:100030008C0764008D0F15280C181E288C1C222894
:1000400000002228080083130313831264000800B1
:10005000831685018312061083160610640083122E
:10006000061A3428013085006400861A39280230C7
:1000700085006400061B3E28033085006400861B53
:1000800043280A3085000614831606108312861052
:100090008316861064008312061A502804308500E7
:1000A0006400861A5528053085006400061B5A280E
:1000B000063085006400861B5F280B30850086149F
:1000C00083168610831206118316061164008312AC
:1000D000061A6C28073085006400861A71280830DB
:1000E00085006400061B7628093085006400861BA5
:1000F0007B280C30850006158316061183128611A5
:100100008316861164008312061A88280E30850033
:100110006400861A8C2885016400061B91280F3024
:1001200085006400861B96280D3085008615831691
:0E01300086110A30831201202B2863009D28BF
:02400E00FD3F74
:00000001FF
