:100000000E29A0007F39201B803C0920A01B003C4A
:1000100008008A01820700340334063409340C34A2
:1000200010341334163419341C341F34223425345C
:1000300028342B342E3431343334363439343C3490
:100040003F3441344434473449344C344E345134D1
:100050005334553458345A345C345E34603462342A
:100060006434663468346A346B346D346F3470349D
:1000700071347334743475347634783479347A3432
:100080007A347B347C347D347D347E347E347E34EB
:100090007F347F347F347F34A0005E20A000732043
:1000A000A700A00A7320A600A00E7320A500A00A36
:1000B000732088202B08A3002A08E82800308A0033
:1000C00020080F398207A6348034A034C03482342B
:1000D000A234C2348434A434C4348634C634E03404
:1000E000E234E434E63400308A0020080F39820715
:1000F0000234B93403340234033454340334AD3499
:100100000434B934053438340534C5340634613424
:10011000A4002508A402031CA5032708A602031CAB
:10012000A7032508A00024080310A40DA50DA40D05
:10013000A50DA4070318A50A2008A5072708A000F5
:1001400026080310A60DA70DA60DA70DA6070318D8
:10015000A70A2008A7073709A2003509A300A20AA9
:100160000319A30A0D30A900AC01AD01AE01AF0126
:10017000A801360884003409E42084130A212408E5
:10018000AC070318AD0A2508AD072608AE0703180B
:10019000AF0A2708AF072D080120803EA1002F08D5
:1001A0000120803EA107210CA80700083404031C8D
:1001B00034068000290303190D30A9000319A20A8F
:1001C0000319A30FBE280929841780050929A30153
:1001D000A200FF30A207031CA307031C0929033058
:1001E000A100DF30F520E928A101E83EA000A10927
:1001F000FC30031CFE28A0070318FB28A00764009E
:10020000A10FFB2820180429A01C08290000082998
:100210000800831303138312640008008316860109
:1002200083120630B6000130B400C830B700B50103
:100230003230AA00AB0109308A014C2005308A0116
:100240004C2001308A014C2002308A014C200430BD
:100250008A014C2002308A014C2008308A014C204F
:1002600005308A014C2000308A014C2009308A0177
:100270004C200130A300F4308A01E8208A011129C2
:0602800063008A01402921
:02400E00753FFC
:00000001FF
