:1000000028288F018E00FF308E07031C8F07031CEA
:10001000232803308D00DF300F2003288D01E83EB8
:100020008C008D09FC30031C18288C070318152838
:100030008C0764008D0F15280C181E288C1C222894
:1000400000002228080083130313831264000800B1
:100050008316C030860083122130860013308F0053
:100060008830022020308600C830012021308600F0
:10007000C830012020308600C830012021308600A1
:10008000C830012020308600C83001202130860091
:10009000C83001202230860001308F002C30022031
:1000A0000C30860013308F00883002200430860028
:1000B000C83001200C308600C83001200430860092
:1000C000C83001200C308600C83001200430860082
:1000D000C83001200C308600C83001201430860062
:0E00E00001308F002C3002202C286300752880
:02400E00FD3F74
:00000001FF
