:100000002828A301A200FF30A207031CA307031C9A
:1000100023280330A100DF300F200328A101E83E90
:10002000A000A109FC30031C1828A00703181528FC
:10003000A0076400A10F152820181E28A01C222844
:1000400000002228080083130313831264000800B1
:1000500083161F3085008601831206108316061052
:1000600083128610831686108312061183160611DA
:1000700083120612831606128312861283168612C4
:1000800083120613831606138312861383168613B0
:10009000831286158316861164008A110A12831250
:1000A000051C7D2864003808003C8A110A12031DD3
:1000B0007B28061483160610831286148316861076
:1000C000831286118316861183120330A300E83051
:1000D0008A01022006108316061083120615831665
:1000E000061183120730A300D0308A0102200611C6
:1000F0008316061183120130B80064008A110A12B7
:1001000005188328B8018A012D2863008A018528F3
:02400E00753FFC
:00000001FF
