:1000000028288F018E00FF308E07031C8F07031CEA
:10001000232803308D00DF300F2003288D01E83EB8
:100020008C008D09FC30031C18288C070318152838
:100030008C0764008D0F15280C181E288C1C222894
:1000400000002228080083130313831264000800B1
:100050008316860183123F30860001308F002C30DA
:1000600002200630860001308F002C3002205B30E9
:10007000860001308F002C3002204F308600013086
:100080008F002C3002206630860001308F002C302B
:1000900002206D30860001308F002C3002207D3030
:1000A000860001308F002C3002200730860001309E
:1000B0008F002C3002207F30860001308F002C30E2
:1000C00002206F30860001308F002C300220773004
:1000D000860001308F002C3002207C3086000130F9
:1000E0008F002C3002203930860001308F002C30F8
:1000F00002205E30860001308F002C3002207930E3
:10010000860001308F002C300220713086000130D3
:0C0110008F002C3002202B2863008C286C
:02400E00FD3F74
:00000001FF
