:1000000028288F018E00FF308E07031C8F07031CEA
:10001000232803308D00DF300F2003288D01E83EB8
:100020008C008D09FC30031C18288C070318152838
:100030008C0764008D0F15280C181E288C1C222894
:1000400000002228080083130313831264000800B1
:100050008316673085008601831264000508003C22
:10006000031D3D287C30860001308F00F4300220D3
:10007000860101308F00F430022064000508013C45
:10008000031D4D280630860001308F00F430022019
:10009000860101308F00F4300220640005080A3C1C
:1000A000031D5D285B30860001308F00F430022094
:1000B000860101308F00F430022064000508643CA2
:1000C000031D6D284F30860001308F00F430022070
:1000D000860101308F00F4300220792866308600D6
:1000E00001308F00F4300220860101308F00F4309F
:0800F00002202D2863007A288C
:02400E00FD3F74
:00000001FF
