:1000000028288F018E00FF308E07031C8F07031CEA
:10001000232803308D00DF300F2003288D01E83EB8
:100020008C008D09FC30031C18288C070318152838
:100030008C0764008D0F15280C181E288C1C222894
:1000400000002228080083130313831264000800B1
:1000500083161F30850086018312083086006400F5
:100060000508013C031D492864002408003C031DC9
:1000700047280330860003308F00E8300220063026
:10008000860007308F00D030022008308600013013
:10009000A40064000508003C031D4F28A4012D287E
:0400A0006300502881
:02400E00FD3F74
:00000001FF
