:1000000028288F018E00FF308E07031C8F07031CEA
:10001000232803308D00DF300F2003288D01E83EB8
:100020008C008D09FC30031C18288C070318152838
:100030008C0764008D0F15280C181E288C1C222894
:1000400000002228080083130313831264000800B1
:10005000831601308500860183126400051C352853
:100060008617831686138312542801308600C83001
:100070000120860101308F00F4300220013086001B
:10008000C8300120860101308F00F4300220013099
:100090008600C8300120860113308F00883002208E
:0E00A00002308600C83001202D28630055284C
:02400E00FD3F74
:00000001FF
