:100000002828A301A200FF30A207031CA307031C9A
:1000100023280330A100DF300F200328A101E83E90
:10002000A000A109FC30031C1828A00703181528FC
:10003000A0076400A10F152820181E28A01C222844
:1000400000002228080083130313831264000800B1
:100050008316860183123F3086000130A3002C30C6
:100060008A010220063086000130A3002C308A016C
:1000700002205B3086000130A3002C308A01022070
:100080004F3086000130A3002C308A0102206630F8
:1000900086000130A3002C308A0102206D308600DA
:1000A0000130A3002C308A0102207D30860001300F
:1000B000A3002C308A010220073086000130A30003
:1000C0002C308A0102207F3086000130A3002C30C2
:1000D0008A0102206F3086000130A3002C308A0193
:1000E0000220773086000130A3002C308A010220E4
:1000F0007C3086000130A3002C308A010220393088
:1001000086000130A3002C308A0102205E30860078
:100110000130A3002C308A010220793086000130A2
:10012000A3002C308A010220713086000130A30028
:100130002C308A010220793086000130A3002C3057
:100140008A0102205E3086000130A3002C308A0133
:100150000220393086000130A3002C308A010220B1
:100160007C3086000130A3002C308A0102207730D9
:1001700086000130A3002C308A0102206F308600F7
:100180000130A3002C308A0102207F30860001302C
:10019000A3002C308A010220073086000130A30022
:1001A0002C308A0102207D3086000130A3002C30E3
:1001B0008A0102206D3086000130A3002C308A01B4
:1001C0000220663086000130A3002C308A01022014
:1001D0004F3086000130A3002C308A0102205B30B2
:1001E00086000130A3002C308A01022006308600F0
:1001F0000130A3002C308A0102208A012B286300E1
:040200008A01FF2848
:02400E00753FFC
:00000001FF
