:1000000051289200220884000930930003100D202B
:10001000920C930B072803140D2884139F1D1C2892
:10002000000820041F1D20068000841700082004FB
:10003000031C20068000272800082004031C20063B
:100040001F192006800084172009800527281F0D0E
:1000500006398C0030208D008C0A302000003D28AD
:1000600000308A000C0882070134753403341534DB
:1000700000343C340C34D9348D01E83E8C008D09B9
:10008000FC30031C46288C07031843288C076400A7
:100090008D0F43280C184C288C1C50280000502829
:1000A0000800640005185D280630A2000130A00099
:1000B00004309F004530012051280630A200013055
:0C00C000A00004309F00413001205128B6
:02400E00FD3F74
:00000001FF
