:1000000028288F018E00FF308E07031C8F07031CEA
:10001000232803308D00DF300F2003288D01E83EB8
:100020008C008D09FC30031C18288C070318152838
:100030008C0764008D0F15280C181E288C1C222894
:1000400000002228080083130313831264000800B1
:100050008316F03086008312860101308F002C3029
:1000600002200130860001308F002C300220023047
:10007000860001308F002C300220033086000130D2
:100080008F002C3002200430860001308F002C308D
:1000900002200530860001308F002C30022006300F
:1000A000860001308F002C3002200730860001309E
:1000B0008F002C3002200830860001308F002C3059
:1000C00002200930860001308F002C3002202C28BD
:0400D0006300682839
:02400E00FD3F74
:00000001FF
