:1000000028288F018E00FF308E07031C8F07031CEA
:10001000232803308D00DF300F2003288D01E83EB8
:100020008C008D09FC30031C18288C070318152838
:100030008C0764008D0F15280C181E288C1C222894
:1000400000002228080083130313831264000800B1
:10005000831686018312013086006430012003304C
:1000600086006430012007308600643001200F30A4
:100070008600643001201F308600643001203F304C
:100080008600643001207F30860064300120FF301C
:100090008600643001207F308600643001203F30CC
:1000A0008600643001201F308600643001200F304C
:1000B0008600643001200730860064300120033060
:1000C0008600643001200130860064300120860102
:1000D000643001201830860064300120243086000E
:1000E0006430012042308600643001208130860077
:1000F0006430012081308600643001204230860067
:1001000064300120243086006430012018308600DD
:0A011000643001202B2863008B28C7
:02400E00FD3F74
:00000001FF
