:10000000592864001120031801281C2008308F0093
:100010001D2011208E0C0C288F0B08281D200E0887
:100020000800220884002008841780048413000537
:100030001F192006FF3E08001F171F0D06398C00F0
:100040002B208D008C0A2B201F1F38281F138C009B
:1000500002304F20382800308A000C088207013413
:1000600075340334153400343C340C34D9348D01E8
:10007000E83E8C008D09FC30031C41288C070318D6
:100080003E288C0764008D0F3E280C1847288C1CD6
:100090004B2800004B28080003108D0C8C0CFF3EF1
:1000A00003184C280C08542883130313831264008C
:1000B00008000630A2000130A00004309F0001209B
:1000C000A40064002408453C031D6A280514831617
:1000D0000510831264002408413C031D7328051099
:0800E000831605108312592854
:02400E00FD3F74
:00000001FF
