:020000040000FA
:100000002828A301A200FF30A207031CA307031C9A
:1000100023280330A100DF300F200328A101E83E90
:10002000A000A109FC30031C1828A00703181528FC
:10003000A0076400A10F152820181E28A01C222844
:1000400000002228080083130313831264000800B1
:10005000831686018312B8013808323C031C6A28D3
:100060003320B9006A2800308A00380882077334C8
:10007000773450347734003438343F346D340034BE
:1000800067343E34793400343934503479340634AA
:1000900077345434003467343E3479340034543483
:1000A0003F34003473343F345E34063477340034E4
:1000B00076347734393479345034003479346D34CB
:1000C00007343F3400340734793454347D34773482
:1000D0005434003439088600B80A0130A300F430E3
:1000E000022064003808323C03192B282C286300B6
:0200F00077286F
:02400E00653F0C
:00000001FF
