:020000040000FA
:1000000028288F018E00FF308E07031C8F07031CEA
:10001000232803308D00DF300F2003288D01E83EB8
:100020008C008D09FC30031C18288C070318152838
:100030008C0764008D0F15280C181E288C1C222894
:1000400000002228080083130313831264000800B1
:10005000831686018312A4012408313C031C6928FD
:100060003320A500692800308A00240882077334F1
:10007000773432347734003438343F346D340034DC
:1000800067343E34793400343934323479340634C8
:1000900077345434003467343E3479340034543483
:1000A0003F34003473343F345E34063477340034E4
:1000B00076347734393479343234003479346D34E9
:1000C00007343F3400340734793454347D34773482
:1000D000543425088600A40A01308F00F430022031
:1000E00064002408323C03192B282C28630076284E
:02400E00FD3F74
:00000001FF
